:100000000C94A8070C94D0070C94D0070C94D0073C
:100010000C94D0070C94D0070C94D0070C94D00704
:100020000C94D0070C94D0070C944C1E0C94BB1E5F
:100030000C94D0070C94D0070C94D0070C94D007E4
:100040000C94D0070C94D0070C94D0070C94D007D4
:100050000C94D0070C94D0070C94D0070C94ED208E
:100060000C94D0070C94D0070C94D0070C94D007B4
:100070000C94D0070C94D0070C94D0070C94D007A4
:100080000C94D0070C94D0070C94D0070C94D00794
:100090000C94D0070C94D0070C94D0070C94D00784
:1000A0000C94D0070C94D0070C94D00752455345BC
:1000B00054004352454449545300534F554E440055
:1000C000504C554E444552005245435255495400F8
:1000D00056495349542054415645524E004D4152C1
:1000E0004B4554504C41434500494E5350454354B1
:1000F00000524550414952530042555920544F4FE8
:100100004C53004C4541564500444953454D4241EE
:10011000524B004F5054494F4E53005341564500E7
:10012000544F4F4C5300434152474F005354415496
:1001300053004D4F5247454E4C414E440048454CAC
:1001400056414E4941004D4F4E54454E4153005388
:100150005544574547454E004E4F52544820495349
:100160004C4553004645524E49434941005345458D
:100170004C414E440053494D45524100534B595355
:1001800041494C0053455854414E5400574F524C2E
:10019000445F4D415000574541504F4E5F555047C9
:1001A00000524F504500504F5454455259004F494A
:1001B0004C0054494D424552004C4951554F520054
:1001C00047554E530053494C56455200474F4C44F7
:1001D000002E08011F3F60C0603F1F0084FDFD002E
:1001E00078FC84CC48017FFF84440078FC84FC7850
:1001F0000004FCFC080404004C9C90FC7E02C0DF60
:1002000007220881FFFF8181FF7E0078FC94DC5883
:1002100000FEFF090178FC94DC580060F494FCF8BF
:10022000017FFF844443414E4E4F4E530052494696
:100230004C455300504953544F4C53004B4E495674
:100240004553004D4F52414C450052455350454394
:1002500054005348495000574541504F4E530043B6
:10026000524557004B414C41534900504554524F61
:10027000484F460052554E44490042524144454E73
:100280000054454C5A4556454E004B414D50494946
:10029000520041524C454348005345455242494360
:1002A0004B004B52495354454C004349564100576B
:1002B000454C54484F4E0053504152474F005A410D
:1002C0004C54564153540042414B4552554D004504
:1002D0004552484156454E00414D54535441440007
:1002E0004B4C494E56454C5400444F525000414CE3
:1002F000414E4F005345564552494E0044554E54C9
:10030000455200504F4C54410042454C48415553D2
:10031000004D4152494B550056454E5354554D00E2
:100320005355524641580042414C414B454E0044C2
:10033000454E2057454C4C004252494D00545241C5
:100340004D4E4547454E004245534556494C4C4558
:1003500000424552544F4E004E4156592056455387
:1003600053454C0050495241544520534849500090
:100370004D45524348414E54205348495000464948
:100380005348494E4720424F4154003A000A002D3D
:1003900020002C20005F002052554C45520A4F4649
:1003A00020544845205345415321004E4156592081
:1003B00044455354524F594544210A594F55204101
:1003C000524520544845004E415659205348495003
:1003D0002044455354524F5945442100464F554EF1
:1003E000442041205452454153555245210A5F5FF4
:1003F0005F424F4E5553202400594F5552205348C9
:100400004950204841532053554E4B2E0A00434F2C
:100410005059524947485420323032320A5F4245DF
:100420005254205654205645455200284F464629DE
:1004300000284F4E29004F5054494F4E530047411A
:100440004D4520534156454400454D5054590053A5
:100450004B595341494C0041545441434B00534183
:10046000494C204C4F5745524544005341494C207C
:1004700052414953454400534849500057494E445E
:100480000A00402000504C454153452057414954F3
:100490002E2E2E004E4545442053455854414E546F
:1004A0000A464F5220504F534954494F4E0052452F
:1004B0004352554954204A4F494E454400594F55DF
:1004C00020414C52454144590A5F48415645205409
:1004D000484154000A544F54414C20434F53542038
:1004E000240042555920412000544F4F4C2053487E
:1004F0004F5000544F4F4C4B4954004C41564953B8
:10050000482054484520435245570A5052494345D4
:1005100020240052454352554954204F46464552E7
:100520000A57414745532024004E4F2044414D4136
:100530004745004E4F5420454E4F5547482046559D
:100540004E44530052455041495220434F5354208A
:100550002400594F5520574552452042414E4E45A3
:100560004400594F5520474F542054484520424F8E
:100570004F54590A2D204D4F4E4559202400594FB4
:1005800055204C4F53542054484520424154544C1C
:10059000450A2D204C4F53532024002D2043524513
:1005A00057204C4F53542000544F54414C202400AA
:1005B0003E003C004445414C005448414E4B2059BC
:1005C0004F5500554E495453005348495020495304
:1005D0002046554C4C00434152474F204241592040
:1005E000454D505459004E4F5448494E47204845B8
:1005F000524500285050552900285154592900537C
:10060000454C4C0042555900494E56454E544F52A8
:10061000590053484F524553204F462000504F52E7
:1006200054200004083E09093E3F25251A1E2121B9
:10063000123F21211E3F2525213F0505011E2129AD
:100640003A3F04043F213F21001021211F3F040AAB
:10065000313F2020203F02023F3F02043F1E212164
:100660001E3F0909061E21112E3F090936222525A4
:1006700019013F01011F20201F0F10201F3F1010E4
:100680003F3B04043B0728281F312D23211E292529
:100690001E223F2000322929261221251A0C0A3F4A
:1006A00008172525191E252518013905031A2525A2
:1006B0001A0629291E002F000000200000001E211C
:1006C0000000211E0000080800143E1400081C3E13
:1006D0007F7F3E1C080040200000240000263F3F92
:1006E00026BA00B200AC0096018C0184017C01DDC9
:1006F00000D000C800C000E9000301F900F10003C8
:100700000109010301090103012C01260120011B3C
:100710000113018701C10075016D01640158014F8A
:100720000146013D01320100000010F8FCF8F2EF33
:10073000FFFEFCF8F0E0001E3E7EFCFFFFFFFBF931
:10074000FFFFFFFF7D3E1E0000000000F8FCFAFFE7
:10075000FEFCF8F000000000003E7EFEFFFFFFFF01
:10076000FFFF7F3F1E00000000000008FCFEFFFEB0
:10077000FCF8F0000000000000003E7EFFFFFFFFDD
:10078000FFFF7F3E00000000000008FCFCFEFFFEB3
:10079000FCF8F000000000000000023F7FFFFFFFB8
:1007A0007F3F000000000000000000F0F8FCFEFFAA
:1007B000FEF800000000000000003E7FFFFFFFFF8A
:1007C000FFFF7E3E000000000000F0F8FCFEFFFE90
:1007D000FCF8100000000000003E3F7FFFFFFFFF1D
:1007E000FFFFFE7E3E000000E0F0F8FCFEFFEFF2AF
:1007F000F8FCF8100000001E3E7DFFFFFFFFF9FB34
:10080000FFFFFFFC7E3E1ED5F08D14A1C881CFD91D
:10081000F1AF2000101000000020201CAE6E6664B6
:10082000100040FF4E007030001415D5C58505003E
:100830000303010100000000004040385CDCCCC82C
:10084000200080FE9C00000000D8DA9A0B0A0A0003
:10085000060602030000000020201CAE6E66641035
:100860000040FF4E0000C0C09475754505050003AB
:100870000301010000000C0880808080427E7E42DF
:10088000808080808242AA4282428242AA42824280
:100890001010000000003E4FCFCFFFCFCF4F3E00E3
:1008A000000000CCCC442828291011102928284405
:1008B000666696018C0184017C01CC01C501C001F2
:1008C000B901B201AE01A601A1013C0234022D0220
:1008D00025025F02570252024A0243021010000032
:1008E000000010F8F0E0020AFCF8F0E00000001C44
:1008F0003C78507773517070577379381C00000042
:1009000000000000F8F002FCF8F000000000000019
:10091000003C7C5C7753705773391C00000000006A
:1009200000000008F8FAFCF8F000000000000000E9
:1009300000003C7C5B537773793C000000000000B2
:10094000000008F8F8FEF8F8F000000000000000D1
:100950000000023B7377733B0000000000000000C2
:10096000000000F0F8FCFAF80000000000000000B1
:1009700000003C797377535B7C3C00000000000072
:100980000000F0F8FC02F0F8100000000000000089
:10099000001C3973577053775C7C3C0000000000EA
:1009A000E0F0F8FC0A02E0F0F81000000000001C83
:1009B00038797357707051737750783C1C00101061
:1009C000B0BCBEBEBFBFBFBFBF4F4321212112FC81
:1009D0005F9F5C9D5D9C5F9F5F9050284828140737
:1009E000080B0002020200000904000001020200DC
:1009F000000524001001052401010104240206055C
:100A000024060001070581031000400904010002CB
:100A10000A000000070502024000000705830240AB
:100A200000000403090412010002EF020140412307
:100A3000368000010102030141726475696E6F2006
:100A40004C4C430041726475626F790081028202EE
:100A50008A028B02C2000D0E8080E81008CE4FCEB5
:100A60000810E8808000000B040809380908040B0E
:100A700000001010000000806016F9F9D6E0C0C038
:100A8000C0C0C0C0181836316264FFFF64623136DE
:100A90001A1800008F06C28F02C28F02C28F06C2D0
:100AA0008F02C28F02C28F06C28B06C28D06C28F12
:100AB00006C28E06C28E02C28E02C28E06C28E028E
:100AC000C28E02C28E06C28A06C28C06C28E06C2C0
:100AD0008F06C28F02C28F02C28F06C28F02C28FE0
:100AE00002C28F06C29006C29106C29206C2910649
:100AF000C28F06C28E06C28C06C28B0CC48B08C87D
:100B0000008104C48504C48104C48504C48104C470
:100B10008404C48504C48306C28004C48404C480DD
:100B200004C48404C48004C48404C48204C480044F
:100B3000C48104C48504C48104C48504C48104C47C
:100B40008504C48304C48406C28004C48404C485A8
:100B500004C48004C4810CC48806CA0083018401D3
:100B60008801C2001010FFFFFFFDFFFFFFFFFFFB2A
:100B7000FF7FFFFBF5FBFFFDFFFFFFF7FFFFFFFF21
:100B8000FFFFFFFBFFFFDFFFFFFDBF5FBFFFFFFBBF
:100B9000FFFFFFFFFDFFFFFFBFFFFFFFFFFFFFFEA8
:100BA000DFFFFFF7FFFF666F0F666006E6E0C0C677
:100BB000063030031B180363600C0CC0D81866F6AF
:100BC000F066066067070100089C9C08808C0CE0BA
:100BD000E0E6060032300303606901383901C0C025
:100BE000001818C1C100001000000800040008002F
:100BF00000100000000008000010000000000010BD
:100C000000000800040000100008000402040008AE
:100C1000001000100000000800100010000000107C
:100C2000000800040204AB0111B911136B2124ACBC
:100C30003114C24117645144F66119037100A18156
:100C400061559127DEA15FA6B150E8C10E3ED14BA0
:100C500053E128A5F1633A0221DA1222F02230830F
:100C60003243A8423F7752370362253E7200998291
:100C70004587924757A25307B20073C26C74D24E95
:100C8000E2E24A8CF280B90429B7142D2C24764B69
:100C9000343AC044009A5462C96452A874484D035F
:100CA0002A34035654032C9303007F032E85032F0D
:100CB0008C0358AA03689A0332AB0333FD0334FE56
:100CC0000335DE0336DF03005E033876033997030E
:100CD0003D66033B6A033C5C035BFB033EAE0300E3
:100CE000A50340A60341BC0342590359CC03002489
:100CF0000300B603644703007A0382220349980382
:100D000000E103540E034C7D034D8D035C54034FEF
:100D1000640300AA0351AB035ECA0360580300E0FA
:100D20000300EF03005103572D0300C80367260398
:100D30005ACA0300A503692E035DF70300A7030049
:100D4000ED0300450300A20300AA0300A60300F779
:100D50000300261366271300762300DB33779743BF
:100D600075C7530027630018730079706E9B706F0E
:100D7000A770005670004E7000D1700059707496C4
:100D80007000D7700082707D4B70002970794A70B6
:100D90007A38707B1170007770006170009170007C
:100DA0002170002E7000F070000E7000D08B02C217
:100DB0008C02C28D02C28F02C68E02C28F08C20090
:100DC000D08002C28102C28202C28402C68302C2F1
:100DD0008408C200D802CF02C702BE02B702AF0227
:100DE000AA02A202990292028A0281027A02740283
:100DF0006B026402510347033D0338032F032703AB
:100E000020031803110309030303FC02F402EE029A
:100E1000E902E0027E03700364035803FFFFFFFF53
:100E2000FFFFFFFFFFFFFFFFFFFFFFFFFFFFFFFFD2
:100E3000FFFFFFFFFFFFFFFFFFFFFFFF101020007E
:100E4000208070F8FCFAC4982040A0002000280CF4
:100E50001F1F1F1D5F1F1F1E5E18410224087FBF3A
:100E60005D2F97CBEBCB9B3B7BF7EFDFBF7FFEC0CC
:100E7000DEDFD1D1D1DFC3C3DEC0C0C0C0FEE30915
:100E8000747A1A760E0E0E0C09E3FFFFFFFBFFEFDC
:100E9000FFFFE309747A1A760E0E0E0C09E3EFF5E4
:100EA000F513E7EBEBDF7FAFAF9F3F5F5DFFF7FF32
:100EB000F0F5FFF7FFFFBFFF87A8FFBFFFFEFFFFB3
:100EC000FBFFFFBFB30D0DB3BFFFFFFFDFFFFFFB56
:100ED000F1E5EFCFCF8080CFCFEFE5F1FBFF1D062F
:100EE000120608060406FF05F905F305E605D60512
:100EF000C905C305B905B405B205B005A8059B052C
:100F00007E05620552054405330529051305FB04DA
:100F1000F304E904E204D404BD04AE04940485049B
:100F200082047C0477046B045E0457044F04490474
:100F30003E04360431042B040E04F903DC03C7031A
:100F4000AB039703950392038F038D038B036A21F1
:100F500011241FBECFEFDAE0DEBFCDBF12E0A0E06C
:100F6000B1E0EAECFCE602C005900D92A23CB107AC
:100F7000D9F728E0A2ECB2E001C01D92A335B20778
:100F8000E1F717E0C8EAD7E004C02197FE010E940C
:100F90005E35C73AD107C9F70E9427230C94633600
:100FA0000C940000EF92FF920F931F93CF93DF9367
:100FB000480F592F511DEB01C20FD11D20E1F22E18
:100FC0000170E02E8417950764F5FB0177FF02C0DE
:100FD000F0E0E0E09E01C134D10514F020E430E0FF
:100FE000E217F307E4F480389105A0F48F0121E0C3
:100FF00001FD24E000FD220F02FD2295087FF09EF6
:10100000D0011124A80FA35DBC4F3C91EE2021F02C
:10101000322B3C933196DECF20953223FACF0196C6
:10102000D1CFDF91CF911F910F91FF90EF90089555
:101030008FB7F8944091290350912A0360912B03B4
:1010400070912C038FBF80915008942F981B809132
:101050005108882331F0909352081092510880E093
:10106000089520914F08921740F49F5F9217A0F4C3
:1010700091E093BF889513BE089581E08093510855
:101080004093500880914B0890914C0801969093A2
:101090004C0880934B0881E00895EDE2F3E080E096
:1010A000A0E0B8E000800EBC8111012C1197A0FDDA
:1010B000FDCF0192B9F70DB4089580E0EDE2F3E0C1
:1010C00081118FEF00248193819381938193039405
:1010D000D1F708959F92AF92BF92CF92DF92EF9295
:1010E000FF920F931F93CF93DF93A82EB62E890103
:1010F00080E093E0992EE82EFB2CF80ECF2DC770E0
:10110000F0E1CF9FE001112480E0D82ECA2CC80E58
:10111000EC2DEF70EC0FFD2FF11DEE0FFF1FE15FC7
:10112000FE4F80818093AE078091AE078823F1F057
:101130008150899DC00111248A5D934FFC01249147
:101140002093AB073196E491E093AC07FC01329613
:10115000E491E093AD07E093AE072F2D4C2D6BEAA1
:1011600077E081E897E0F8010995DECF81E0D812B9
:10117000CCCFE812C0CFDF91CF911F910F91FF909C
:10118000EF90DF90CF90BF90AF909F9008954F92D7
:101190005F926F927F92BF92CF92DF92EF92FF9217
:1011A0000F931F93CF93DF93162FC090B407D09067
:1011B000B507E090B607F090B707682F70E090E0B1
:1011C00080E00E943134A70196010E94873320E01D
:1011D00030E040E054E40E94BD340E94F933C091F5
:1011E000B807D091B907C60FD71F612F70E090E004
:1011F00080E00E943134A70196010E94873320E0ED
:1012000030E040E054E40E94BD340E94F933E091A4
:10121000BA07F091BB07E60FF71F4090BC0750904C
:10122000BD070091BE071091BF07B12C9201D801F4
:101230000E9464356B017C0149E0F594E794D794F2
:10124000C7944A95D1F7D2010E9464352B013C0125
:1012500059E075946794579447945A95D1F798013B
:10126000D8010E946435A9E0959587957795679593
:10127000AA95D1F7461A570A4C0E5D1E0D2C000C8C
:10128000EE08FF08CC0CDD1CEE1CFF1C8F010C0DC2
:101290001D1DB3948091B307B816F8F49801D801D6
:1012A0000E9464356B017C0189E0F594E794D79442
:1012B000C7948A95D1F79201D2010E94643529E042
:1012C00095958795779567952A95D1F7C60ED71E80
:1012D000C11488E0D8060CF4A9CF8B2DDF91CF91F3
:1012E0001F910F91FF90EF90DF90CF90BF907F9074
:1012F0006F905F904F9008952F923F924F925F9220
:101300006F927F928F929F92AF92BF92CF92DF9215
:10131000EF92FF920F931F93CF93DF9300D000D0F3
:10132000CDB7DEB74090AF070091B10710E09091C4
:10133000B007E090B207F12C8091C1076090C00720
:101340001C821B82C92ED12CA82EB12C512C712CA1
:1013500089E0282E8B819C818C0D9D1DB7010E94F8
:101360004A358E0D9F1DB7010E944A35382E8B815C
:101370009C818A0D9B1D65E070E00E944A35912C8E
:10138000812C289E9001299E300D1124C901815580
:10139000984F9A838983C201880D991DB8010E94D4
:1013A0004A35800F911FB8010E944A35632D0E9473
:1013B000C708282FC301880D991D69E070E00E94BD
:1013C0004A35E981FA81E80FF91F238B9FEF891ACB
:1013D000990A89E088169104F1F68B819C81019627
:1013E0009C838B83059709F0B5CF0F900F900F90DA
:1013F0000F90DF91CF911F910F91FF90EF90DF90B1
:10140000CF90BF90AF909F908F907F906F905F90A4
:101410004F903F902F900895FC018091F90288230E
:1014200011F13FB7F89482E08093E9002091F20037
:10143000822F90E01816190614F481E090E08823BA
:1014400039F0289844E64093F8024091F100408337
:10145000222339F02091F200211103C02BE62093C2
:10146000E8003FBF08958FEF9FEF08952FB7F894DE
:1014700083E08093E9009091E800892F807295FFC6
:1014800004C09091F20080E4891B2FBF08958091E1
:10149000F00281110DC082E08093EC0284E0809321
:1014A000ED021092EF021092EE0281E08093F002C2
:1014B0008CEE92E00895CF93DF931F92CDB7DEB705
:1014C0006983DC01ED91FC910280F381E02D41E024
:1014D00050E0BE016F5F7F4F09950F90DF91CF9174
:1014E000089583E08093E9008091F200882319F049
:1014F0008AE38093E80008950E94360A90E00895F8
:10150000CF93DF931F92CDB7DEB7FC01848595851D
:1015100097FD08C02FEF3FEF358724870F90DF91AD
:10152000CF910895CE0101960E940C0A019719F4FB
:10153000898190E0F3CF8FEF9FEFF0CF0F931F9350
:10154000CF93DF931F92CDB7DEB78C01FC0184856A
:10155000958597FF0BC0CE0101960E940C0A01975A
:1015600071F4898190E0F80195878487F80184857A
:1015700095850F90DF91CF911F910F9108958FEF77
:101580009FEFF1CFFC018485958597FD0BC09FB738
:10159000F89482E08093E9008091F2009FBF90E090
:1015A000019608959FB7F89482E08093E9008091B6
:1015B000F2009FBF90E008954091E6025091E7024B
:1015C0002091E4023091E50242175307B4F4909160
:1015D000E8009570E1F39091E80092FD19C08093C6
:1015E000F1008091E6029091E70201968F739927AE
:1015F000892B19F48EEF8093E8008091E602909198
:10160000E70201969093E7028093E60281E0089555
:1016100080E00895DF92EF92FF920F931F93CF9394
:10162000DF93D82E8A01EB017B01E40EF51ECE1567
:10163000DF0559F0D7FE12C0FE0184910E94DC0A3A
:1016400021968111F4CF0FEF1FEFC801DF91CF91E9
:101650001F910F91FF90EF90DF9008958881EECF5A
:101660000F931F93CF93DF931F92CDB7DEB782E026
:10167000898342E450E060EE79E080E80E940A0B42
:101680000E94470ADC0112960D911C91011511056B
:1016900089F0D801ED91FC910280F381E02DBE012B
:1016A0006F5F7F4FC801099597FD04C0F801008561
:1016B0001185ECCF89810F90DF91CF911F910F9110
:1016C0000895615030F02091F100FC0120830196D3
:1016D000F8CF289884E68093F8020895AF92BF92DD
:1016E000CF92DF92EF92FF920F931F93CF93DF93EE
:1016F0006C017B018B01040F151FEB015E01AE181D
:10170000BF08C017D10759F06991D601ED91FC913E
:101710000190F081E02DC6010995892B79F7C5016B
:10172000DF91CF911F910F91FF90EF90DF90CF90BD
:10173000BF90AF9008953FB7F8948091C302909105
:10174000C402A091C502B091C60226B5A89B05C0EF
:101750002F3F19F00196A11DB11D3FBFBA2FA92F30
:10176000982F8827BC01CD01620F711D811D911D2D
:1017700042E0660F771F881F991F4A95D1F7089599
:101780008F929F92AF92BF92CF92DF92EF92FF9291
:101790006B017C010E949B0B4B015C01C114D104C5
:1017A000E104F104B9F00E949B0B681979098A09D8
:1017B0009B09683E73408105910580F321E0C21AC0
:1017C000D108E108F10888EE880E83E0981EA11C7C
:1017D000B11CE4CFFF90EF90DF90CF90BF90AF901F
:1017E0009F908F9008958F929F92AF92BF92CF92C9
:1017F000DF92EF92FF920F931F93CF93DF936C01D1
:101800007B018A0180910D01882309F45CC08091DD
:10181000F902882309F457C08091EB0280FF05C0CC
:101820008091E00082608093E000E801B12C8AEFB3
:10183000A82E93E0892E2AE3922E209711F4BB2044
:10184000D9F10E94360A81110AC0AA94AA20D9F1BE
:1018500061E070E080E090E00E94C00BEECF8C175A
:101860001D0611F00CF08C2F9FB7F8948092E900C0
:101870002091E80025FD02C09FBFDFCF282F30E078
:10188000C21BD30BF701815020F041914093F1002E
:10189000FACFE20EF31EBB2021F09092E800B12CAB
:1018A000EBCF8091E80085FDE7CF9092E800BB2464
:1018B000B394209709F3F3CF5D9884E68093EA020E
:1018C000101611063CF081E090E0F60193838283CC
:1018D00010E000E0C801DF91CF911F910F91FF90C0
:1018E000EF90DF90CF90BF90AF909F908F90089532
:1018F0004F925F927F928F929F92AF92BF92CF92C0
:10190000DF92EF92FF920F931F93CF93DF934115D6
:10191000510509F4DFC0FA01F4903196E4914E5F6D
:101920005F4FCF2CD12C011102C0EE2019F1C1E084
:10193000D0E0FE2FF77011F4D0E0C0E0AE2FA695F6
:10194000A695A695AC0FBD2FB11DAC9DE001AD9D38
:10195000D00DBC9DD00D1124EC9ED001ED9EB00D9C
:1019600011242A0F3B1F0C9FD0010D9FB00D112495
:101970004A0F5B1FE601C80FD91F1C161D060CF08D
:10198000A9C0803891050CF0A5C0DB01AE0FB11DD8
:101990001A161B060CF09EC0603471050CF09AC03C
:1019A0004115510509F496C0F62FF7707F2EDB0123
:1019B00077FD179613E0B595A7951A95E1F7FA2FDD
:1019C00077FF04C0772011F0FFEFFA0F6627772723
:1019D000681B790B97FD02C070E060E0A0E88A2EDA
:1019E000881AC038D1050CF48F2C861AAF2F0F2E11
:1019F000000CBB0BCA2FC095FF3F0CF0C0E001E00C
:101A0000DE2FD77009F400E0E695E695E695E00F45
:101A1000AE0FB11D199714F0E8E0EF1B9C2E9F0E3E
:101A2000092D10E80103D0011124A80FB91FA60F3A
:101A3000B71FFC9E600D711D1124460F571FE72C28
:101A4000072C000CFF08260F371F9E2F9F0F99169B
:101A500009F440C0ED01C35DDC4F10E000E0081563
:101A600088F5F901E00FF11F649170E00E2C02C0BF
:101A7000660F771F0A94E2F760957095FA01E00F00
:101A8000F11FE491F0E02F010E2C02C0440C551C14
:101A90000A94E2F797FC04C088818623842988830E
:101AA000772061F086E089154CF05E01E0E8AE0E2B
:101AB000B11CF50180818723852980830F5F1F4F2B
:101AC0002196CDCF93944C0D5D1D2C0D3D1DA0583E
:101AD000BF4FBDCFDF91CF911F910F91FF90EF903E
:101AE000DF90CF90BF90AF909F908F907F905F904E
:101AF0004F900895CF92DF92EF92FF920F93CF9382
:101B0000DF937B0130E1439FA0011124DB01CC91E5
:101B1000BC2FBF70CB2EC40ED52ED11CEFEAF7E040
:101B20003081C31AD10834E0CC0CDD1C3A95E1F7C2
:101B3000DC011C963C91C31AD108B0E12B9F9001A7
:101B40001124C295CF70C20FD32FD11D2181C21B8A
:101B5000D10944E0CC0FDD1F4A95E1F7FC018585F2
:101B6000C81BD10900E020E140E1BE01C6010E948E
:101B7000D207D70111960C910F70E12C2CE13EE0B9
:101B80004CE35EE0BE01C6010E94780CDF91CF916C
:101B90000F91FF90EF90DF90CF900895BC0190E0FF
:101BA00080E00C94C00B8FB18095807F669B88602D
:101BB0001C9B846008951092C7023E983F98089538
:101BC0003E9A3F9A81E08093C702089508950F934B
:101BD0001F93CF93DF93C82FD62F142F0C2F0D0FE9
:101BE00001706D2F70E021E041E08C2F90E00E94A9
:101BF000D207112351F0DF5FCE3711F0DE3370F3DF
:101C0000DF91CF911F910F910895CF5FF5CFEF92A4
:101C1000FF920F93CF93DF93EB017A01FC01808554
:101C2000918568E0680F843B910510F060E7681BC0
:101C300070E090E080E00E94313420E030E048E441
:101C400053E40E94873320E030E040EE50E40E94ED
:101C5000BD340E940034062F80914B0890914C08AF
:101C600067E170E00E943635617077276E0D7F1D49
:101C7000E02E27E237E04CED58E0CE010E94780CD0
:101C8000DF91CF910F91FF90EF900895FF920F9306
:101C90001F93CF93DF93062E000C770B260F372F61
:101CA000311D082E000C990BFF24F394480F592F77
:101CB000511D6217730754F56034710520F58B01CF
:101CC000E3E015950795EA95E1F71695102F0027A3
:101CD00017950795FB01E770FF27CF2D01C0CC0FAB
:101CE000EA95EAF7FC01E417F5076CF4E038F10532
:101CF00040F4DF01A00FB11FA35DBC4FDC91DC27D6
:101D0000DC933196F0CF6F5F7F4FD3CFDF91CF91D0
:101D10001F910F91FF900895FC01462F27E030E0BE
:101D2000261B310981E090E002C0880F991F2A9597
:101D3000E2F79927880F991F880F991F65E070E0D7
:101D40000E944A352091150223702B5F260F809147
:101D50001402481306C0822F6AE00E942A352B5FC6
:101D6000280F319731F4822F62E30E942A352150E7
:101D7000281B822F0895FC019C01285F3F4F80E0C3
:101D8000919191118F5FE217F307D1F70895CF93E7
:101D9000DF93DC01EB0130E1439FB0011124E881C6
:101DA0008E2F8F70860F972F911D3091AF073C5F5C
:101DB0003817190619F530E1239FC0011124E29567
:101DC000EF70E80FF92FF11D8091B0078E5F8E172D
:101DD0001F06A1F44F701A964C931A9727701B9602
:101DE0002C931B97888116968C931697898117964A
:101DF0008C9317978A818F5F18968C93DF91CF9180
:101E0000089520910E01222349F190919607A1E0B7
:101E1000B0E030E0961719F1980FFD01092E02C0CD
:101E2000EE0FFF1F0A94E2F7E223F323EF2B91F367
:101E3000909396072091C8023091C902232B11F488
:101E40009093950783E197E09093080380930703AD
:101E500081E090E090930403809303030895942F0E
:101E6000DCCF8091C8029091C90260E08930910571
:101E700020F4885A9D4FFC016081615040E081E070
:101E80000C94010F8091FE0280FF11C08091C80266
:101E90009091C90240E08930910520F4885A9D4F05
:101EA000FC014081415060E08FEF0C94010F81FDF7
:101EB0000C94310F0895CF93DC019093C902809365
:101EC000C802109296076115710559F48FEF80933F
:101ED0000E01AB2B21F48091950780939607CF914B
:101EE0000895FB01389647E050E080E061E070E043
:101EF0009B01042E01C0220F0A94EAF790910E0173
:101F0000C291CC2351F0292B20930E01842F4150F4
:101F1000510970F780939607DCCF209529232093F1
:101F20000E01F5CF8F929F92AF92BF92EF92FF92E8
:101F30000F931F93CF93DF9301E013E0C5E0D3E04D
:101F4000F12C60E4E62EF801819191918F010097C8
:101F500009F44DC00197DF019E938E93892B09F000
:101F600046C0E881F9819F012F5F3F4F3983288365
:101F70008491982F92959695969593708F73923041
:101F800009F05CC03296F983E883F90124912F733C
:101F900030E0220F331F2D933C93E82FF0E0EE0F3B
:101FA000FF1FE25DFD4F6081718190E080E00E9443
:101FB0002F344B015C0120E030E040E05FE30E9401
:101FC000BD34F11026C020E034E244E759E40E9419
:101FD0001B33A50194010E9487330E940034615095
:101FE0007109E09290007093990060939800229696
:101FF000F1E0FF120BC0DF91CF911F910F91FF9085
:10200000EF90BF90AF909F908F900895FF24F3942E
:102010009ACF20E034E244E757E40E941B33A50145
:1020200094010E9487330E94003461507109E0924C
:10203000C0007093BF006093D100D9CF9330B9F640
:1020400090E0880F991F8D939C93F11003C010921C
:102050009000CDCF1092C000CACFCF93C82F0E945E
:102060004D08C15038F00E94920F0E941808882332
:10207000E1F3F7CFCF910895CF93DF93EC0143E1E4
:1020800050E065E178E082E090E0FE01099546E2EB
:1020900050E06FEE77E085E190E0FE01099549E0C0
:1020A00050E064E172E08BE390E0FE01099547E0C7
:1020B00050E06DE172E084E490E0FE01099541E0BA
:1020C00050E069EA77E08BE490E0FE01099548E092
:1020D00050E06BE977E08CE490E0FE01099540E088
:1020E00051E06FE071E084E590E0FE01DF91CF9177
:1020F0000994E62FF0E0E65DFD4F4081849FA0014A
:102100001124E091CA02F0E0E65DFD4F208130919C
:1021100020023203900111249091230297FD915FD8
:102120009595959595959595290F311D97FD3A951E
:1021300081E04217530708F080E00895909118025B
:10214000992371F08FEF8093FF028AE5809300035B
:10215000109218028091A907877F8093A90708959C
:102160008093FF029AE590930003909121028917D2
:1021700024F4981B90932102089582E090E09093BC
:1021800024088093230880EF809326080895FC019B
:102190004081518162817381DB01CA012FE0B595D5
:1021A000A795979587952A95D1F7AA27BB2777FDFD
:1021B00006C040E050E0BA01842B952B089540E022
:1021C00050E06FEF7FEFF8CFFF920F931F93CF9305
:1021D000DF938C010E94C710EC01C05CDF4FC80187
:1021E00004960E94C7102FE02D17C8F080969830F3
:1021F000B0F420E19202F0011124ED0FF11DD7FDA2
:10220000FA95EE0FFF1FE15FFE4F818186FB882765
:1022100080F9DF91CF911F910F91FF90089580E099
:10222000F8CFCF93DF93CDB7DEB728970FB6F894EA
:10223000DEBF0FBECDBFFC0198E0DE01119601901C
:102240000D929A95E1F729813A814B815C816D81EC
:102250007E818F81988528960FB6F894DEBF0FBED9
:10226000CDBFDF91CF9108952F923F924F925F9211
:102270006F927F928F929F92AF92BF92CF92DF9296
:10228000EF92FF920F931F93CF93DF93CDB7DEB7FB
:102290002E970FB6F894DEBF0FBECDBF85E198E054
:1022A0000E94111129833A834B835C836D837E8363
:1022B0008F839887CE0101960E94C7108C01CE01B2
:1022C00005960E94C7100F70112700938D078F701D
:1022D000992780938E07CE0101960E94C7102C018A
:1022E00034E0569447943A95E1F7CE0105960E9462
:1022F000C7101C0144E0369427944A95E1F7809179
:10230000FC029091FD029201281B390BF901C901D1
:1023100037FF04C088279927821B930B8130984090
:1023200014F0F901F0518091FA029091FB02A101A1
:10233000481B590B9A01CA0157FF04C088279927E7
:10234000841B950B8130944014F09A0138503097DB
:1023500021F42115310509F44AC0922E4E2F0E2E7C
:10236000000CFF0B6090B107712C8091AF078E0FAE
:102370009F2F911DB3010E944A35860D971DB30111
:102380000E944A358C018093AF07022E000C330B5C
:10239000E090B207F12C8091B007820F932F911D2E
:1023A000B7010E944A358E0D9F1DB7010E944A3524
:1023B0006C018093B007CF01F7FF04C088279927ED
:1023C0008E1B9F0B02974CF4C90137FF04C088276E
:1023D0009927821B930B02971CF10E947C09509253
:1023E000FD024092FC023092FB022092FA022E96ED
:1023F0000FB6F894DEBF0FBECDBFDF91CF911F9116
:102400000F91FF90EF90DF90CF90BF90AF909F9093
:102410008F907F906F905F904F903F902F90089596
:10242000442309F47BC08091C0078E0F9F2F911D1C
:10243000E9E0F0E0BF010E944A350996BF010E9421
:102440004A35FC018093C007911057C020E047FF38
:1024500028E0022E000C330BC901800F911DB3013F
:102460000E944A35860D971DB3010E944A35882E79
:102470004091C107C9018E0F9F1F69E070E00E9463
:102480004A359A878987B12CA12CC60199279C8748
:102490008B87842F90E09E878D878B859C858A0D06
:1024A0009B1DB7010E944A358E0D9F1DB7010E94EA
:1024B0004A35682F882D0E94C708282F8D859E8554
:1024C0008A0D9B1D65E070E00E944A3539E0389F17
:1024D000F001399FF00D1124E155F84F89859A8557
:1024E000E80FF91F238B9FEFA91AB90A35E0A3164D
:1024F000B10499F6911025C072CF8091C107820F67
:10250000932F911D25E030E0B9010E944A350596D0
:10251000B9010E944A358093C10798CF992009F4E8
:102520005ECF8091C107820F932F911DE5E0F0E00F
:10253000BF010E944A350596BF010E944A3580932B
:10254000C10724E097FC20E0022E000C330BC901E8
:102550008C0D911DB7010E944A358E0D9F1DB7014C
:102560000E944A3589878091C107820F932F911D60
:1025700065E070E00E944A35A090C007F12CE12C84
:102580001127B12C29E0822E912C49E0489F90011F
:10259000499F300D1124C9018155984F6C01C80124
:1025A0008E0D9F1DB3010E944A35860D971DB30104
:1025B0000E944A3569850E94C708282FC5018E0DE3
:1025C0009F1DB4010E944A35F601E80FF91F238BC5
:1025D0009FEFE91AF90A39E0E316F10401F7FFCE9B
:1025E0008F929F92AF92BF92CF92DF92EF92FF9223
:1025F0000F931F93CF93DF939C016AE570E00E94D5
:102600003635C62FD62F8AE5689F20193109112447
:10261000C901B0E0A0E02FE0880F991FAA1FBB1FDF
:102620002A95D1F76C017D01FF0CCC08DC2C7601DA
:102630009C01AD016C2D7C2D8C2D9C2D0FE00E94FA
:102640004A36A12CE0ECBE2EF3E0CF2ED12CE12CAB
:10265000F12C00E010E00E94753549015A01AFE00D
:10266000B594A79497948794AA95D1F7E82DF0E0B4
:10267000EE0FFF1FE85DF74F80819181C23008F4B3
:102680009195C150C23080F48195D13079F0DF91BD
:10269000CF911F910F91FF90EF90DF90CF90BF905F
:1026A000AF909F908F900895D33089F7482F880F6F
:1026B000550B660B770B892F942FE9CF9C01322F96
:1026C0002227330F330F820F931F9C0156E036955C
:1026D00027955A95E1F728273927C90163E0880F24
:1026E000991F6A95E1F7820F931F9C01232F3327CF
:1026F0002695269526958227932708958091000197
:10270000909101010E945E1390930101809300015A
:102710000895CF92DF92EF92FF921F93CF93DF93B2
:1027200045E0649F900111242D5F3F4FE82FE29F09
:10273000C001E39F900D1124909312028093110227
:1027400040911E0250911F022091970730919807E7
:10275000840F951F2817390708F4C90190931F02A9
:1027600080931E028BE9C82E87E0D82E9BECE92EC1
:1027700092E0F92E10E0C62FD0E0CB5CD240F701FA
:1027800011927F01133070F40E947E13BE016E0D12
:102790007F1D0E943635F6019081980F9083F701D6
:1027A000319780831F5FFFEFCF1ADF0A183039F7A8
:1027B000DF91CF911F91FF90EF90DF90CF90089520
:1027C000282F30E088279927821B930B90931202C1
:1027D0008093110280911E0290911F02821B930B25
:1027E00097FF02C090E080E090931F0280931E024A
:1027F0000E947E13837081958093130220912002A2
:10280000082E000C990B820F911D27FD9A95181622
:10281000190624F081E0821B809313028091130239
:10282000820F809320020895EF920F93CF93DF934E
:10283000EC016A3061F48D818C838E81855F8E839B
:1028400081E090E0DF91CF910F91EF9008958C811E
:10285000603219F48D5F8C83F3CF6F3511F48B5F89
:10286000FACF062F6E816F5F0A3310F5003380F5C3
:102870000932D1F1A8F4043299F10832B9F10132E8
:10288000F1F404E2062E000C770BE12C26E232E094
:1028900043E256E0082E000C990B0E94780C0FC002
:1028A0000D3201F10E3221F10C3249F40CE2EACF83
:1028B0000E3391F030F40A3369F00C3379F08C81E7
:1028C000CECF0034B9F0D8F30B35C8F70154DACFC6
:1028D0000651D8CF0DE2D6CF0BE2D4CF0AE2D2CF49
:1028E00009E2D0CF08E2CECF07E2CCCF06E2CACFD2
:1028F00005E2C8CF0EE2C6CF089590E080E00895CB
:10290000009769F0FC0101900020E9F73197AF01D1
:10291000481B590BBC0180E498E00C946E0B90E0CE
:1029200080E008954F925F926F927F928F929F9274
:10293000AF92BF92CF92DF92EF92FF920F931F93CD
:10294000CF93DF93582E662E172F89E093E0FC017A
:1029500001900020E9F7CF018A509340982FC0E002
:10296000712C80E020E0E22FF0E0E75FFC4F308147
:102970003A3011F031116CC030E0781610F0382F79
:10298000872DCF5F782E832F2F5F921760F761110D
:1029900005C0872D869590E4692E681A2C2F30E0AB
:1029A00071110CC045EF4203C001439F900D1124EB
:1029B00097FD01969595879510E2180FE12EF12C61
:1029C0004701F5E08F1A9108C62CD12C560188E0FA
:1029D000A81AB108EBE0CE9FE0011124279680E110
:1029E000482E470C00E02C2F442DB401C5010E9455
:1029F000D207552099F001E02C2F442DB401C501D8
:102A00000E94D2072C2F22504EE0470DB701645090
:102A1000710900E0C60107970E94D207609245083D
:102A2000609244081093460889E093E0DF91CF91CB
:102A30001F910F91FF90EF90DF90CF90BF90AF90DC
:102A40009F908F907F906F905F904F900C94801428
:102A5000303211F48D5F98CF8B5F96CF1F93CF9359
:102A6000DF93182F4AE06AE073E080911E02909194
:102A70001F020E94C032C9E0D3E084E2888309903B
:102A80000020E9F7CA50D340812F2BEFC29F800D61
:102A90001124E0E4F8E08583848381E0868389E083
:102AA00093E00E9480148C2FDF91CF911F910895A5
:102AB0001F93CF93DF93C62FD42FE9E0F3E001906B
:102AC0000020E9F7EA50F3403E2F41E08A309105BB
:102AD00008F042E021E08436910508F420E011E09E
:102AE000883E53E0950708F410E0120F140F2EE211
:102AF000DE3209F02FE5FF27E75FFC4F3C1718F4A3
:102B000021933F5FFBCF6C2F611B70E0675F7C4FB1
:102B10004AE00E94C0328C2F8150990BFC01E11BCE
:102B2000F109E75FFC4FD08389E093E0DF91CF911B
:102B30001F910895EF92FF920F931F93CF93DF930E
:102B40007B01E40EF51EEB0140968C01061B170B72
:102B5000CE15DF0539F0C8018C0F9D1F0E94F5329C
:102B60008993F6CFDF91CF911F910F91FF90EF9056
:102B70000895660F771FFC01E60FF71F65917491AA
:102B800089E093E00E94B93289E093E00895BC01A6
:102B90008EED9EE00E94B91560E070E081E00E9439
:102BA000921484E60C942D10EF920F9301E026E12D
:102BB00046E16FE070E084E090E00E94D20700E020
:102BC00020E140E162E170E087E090E00E94D207FE
:102BD000009188070F70E12C2CE13EE04CE35EE0B1
:102BE00062E170E087E090E00E94780C80918307BA
:102BF000909184078230910519F005970297F0F4BF
:102C00008AE680934508809344081092460861E262
:102C100070E08EED9EE00E94B9150E9480144AE09B
:102C200069E073E080911502909116020E94C03213
:102C300089E093E00F91EF900C9480140F91EF9046
:102C400008952F923F924F925F926F927F928F9250
:102C50009F92AF92BF92CF92DF92EF92FF920F932B
:102C60001F93CF93DF93CDB7DEB7A4970FB6F89439
:102C7000DEBF0FBECDBF8091AF07182F12951F701A
:102C80009091B007F92EF2947FE0F722890F80FB34
:102C9000222420F8312C4101B12CA12C20E1F29EFC
:102CA000C0011124810F911D880F991FFC01E05F65
:102CB000FE4FFCA3EBA32401421853088091B007F8
:102CC000840D952D911D49E0489F9001499F300D3D
:102CD00011243AA329A3712C612CD12CC12C8091F1
:102CE000C107840D952D911D65E070E00E944A3565
:102CF0009C018091C0078C0D9D2D911D69E070E0B5
:102D00000E944A3549E0429FF001439FF00D112493
:102D1000E155F84FE80FF91F43892091B307C4012B
:102D20008C0D9D1D81709927082F24133FC1809120
:102D3000AF078C0D9D2D911DE9A1FAA18E0F9F1F4C
:102D40000E945E1383709927892B09F43FC144E6E2
:102D50005BE080918E07B501681B710980918D073A
:102D6000E12C2CE13EE0F301E81BF109CF010E94C8
:102D7000780CFFEFCF1ADF0A20E1620E711C39E0F8
:102D8000C316D10409F0ABCF40E1A40EB11C8FEF04
:102D9000881A980AE0E5AE16B10409F08CCF2AE74C
:102DA0003DE050E040E06F2D812F0E946A08E090E6
:102DB0004B08F0904C08FFE0EF22FF240FEE17E0E5
:102DC00045E1642E48E0742E54E1C52ED12C68E311
:102DD000A62EB12CF801868597858130910541F0AA
:102DE000029709F069C0F8E0EF16F10408F464C036
:102DF000C8010E9411116D837E838F83988785E1BE
:102E000098E00E9411116D877E878F87988B4D8582
:102E10005E856F8578898D819E81AF81B885481BDD
:102E2000590B6A0B7B0BDB01CA013FE0B595A795F7
:102E3000979587953A95D1F7AA27BB2777FDCAC002
:102E400040E050E0BA01842B952B4601881A990A7C
:102E5000C8010E941111298B3A8B4B8B5C8B85E149
:102E600098E00E941111298F3A8F4B8F5C8F498D0A
:102E70005A8D6B8D7C8D89899A89AB89BC89481B59
:102E8000590B6A0B7B0BDB01CA012FE0B595A795A7
:102E9000979587952A95D1F7AA27BB2777FD9FC0DD
:102EA00040E050E0BA01842B952BB501681B790BEB
:102EB000A401C8010E94070E0D5E1F4F6016710627
:102EC00009F088CF8091260881508436A8F080913F
:102ED0002308909124088130910531F0029761F424
:102EE00028E0E216F10440F044E150E068E370E0CD
:102EF00085E198E00E94070E809100038823E1F0AD
:102F00008150809300038823B9F066E00E942A353F
:102F10001EE0180F8091FF0218160CF065C04AE001
:102F200069E073E0082E000C990B0E94C03264E542
:102F3000712F81E00E9492148091230890912408BF
:102F4000019709F058C08091210284310CF053C0E0
:102F500080914B0890914C0864E670E00E943635F1
:102F6000899708F448C063E270E08EED9EE00E940D
:102F7000B91562E071E080E0A4960FB6F894DEBF68
:102F80000FBECDBFDF91CF911F910F91FF90EF90BA
:102F9000DF90CF90BF90AF909F908F907F906F9079
:102FA0005F904F903F902F900C9492142150330BD0
:102FB00002E0080F421713060CF0C9CEEBA1FCA1EA
:102FC000008105FB002700F90C5FC1CE03E04CE354
:102FD0005EE0BFCE40E050E06FEF7FEF34CF40E0E7
:102FE00050E06FEF7FEF5FCF67E270E08EED9EE025
:102FF0000E94B9159CCFA4960FB6F894DEBF0FBE01
:10300000CDBFDF91CF911F910F91FF90EF90DF9097
:10301000CF90BF90AF909F908F907F906F905F9078
:103020004F903F902F90089568E270E08EED9EE003
:103030000E94B91560E070E080E00C949214009753
:1030400039F0BC018EED9EE00E94B9150E948014FB
:103050006091140270E087E197E00E94B9150C942A
:1030600080140F9300E02AE040E870E060E090E018
:1030700080E00E94D2078091810790918207823080
:10308000910589F184309105E1F0019709F060C064
:1030900082E0809345088093440810924608E091AE
:1030A0008A0783E1E89FF0011124E151F84F62891A
:1030B000637070E084E19EE00E94B9150F910C945A
:1030C000801482E08093450880934408109246085B
:1030D00061E070E08EED9EE00E94B9150E948014C0
:1030E00090E080E01CC060918807862F8F7082304E
:1030F000C9F0843019F1813059F582E08093450898
:10310000809344081092460862956F7070E084EDD9
:103110009DE00E94B9150E94801484E390E00F9115
:103120000C941F1880934508809344081092460819
:1031300062956F7070E084EF9DE0EBCF82E080934A
:103140004508809344081092460870E060E0C2CFC2
:103150000F910895CF93DF93D82FC62F0E945D085B
:10316000C13031F00E943118C33011F40E94D415DF
:103170008D2FDF91CF910C942D108091830790912A
:103180008407909386078093850784E190E090936D
:103190008407809383078EE091E090939407809357
:1031A000930780914B0890914C08E1E8F7E0815833
:1031B0009740DC01AE0FBF1FA370BB27A656BD4FC3
:1031C0002C912687319627E0E538F20791F761E0E8
:1031D0008AE00E94AA1880EC9DE0909306038093F9
:1031E000050381E090E090930203809301032CEAB1
:1031F0003DE03093080320930703909304038093EA
:1032000003030895DF92EF92FF920F931F93CF93E2
:10321000DF932091830730918407309386072093B2
:103220008507909384078093830710921C02813155
:10323000910509F462C10097C1F04CE55BE0509341
:1032400008034093070341E050E050930403409388
:1032500003038D30910509F412C17CF48730910588
:1032600009F489C0089709F4C0C0DF91CF911F917C
:103270000F91FF90EF90DF9008958131910509F44F
:103280003CC18331910509F441C10E9771F761E0AA
:103290008AE00E94AA188091A90782FF22C1E12C2E
:1032A00000E02CE13EE042E75AE062E170E088E3B2
:1032B00090E00E94780C82E2809345088093440855
:1032C0008AE28093460860E270E08EED9EE00E9404
:1032D000B9150E9480140E944D0801E020E440E8E6
:1032E00070E060E090E080E00E94D2071091B307A8
:1032F0001250C1E0D0E0DC2EDD0CEE24E394F12C82
:103300006D2D8E2D880F0E94C70801E0181708F058
:1033100000E021E041E0BE01C7010E94D207FFEFBB
:10332000EF1AFF0A2FE7E216F10451F72196CF3387
:10333000D10509F741E061E080E20E94E70D41E03C
:1033400061E080E40E94E70D41E061E080E60E94D8
:10335000E70D40E060E281E00E94E70DE12C00E033
:103360002CE13EE046E55AE065E070E086E090E062
:103370000E94780C7ACF2431310549F0DF91CF914A
:103380001F910F91FF90EF90DF900C94BD18C091AA
:10339000150260E08C2F0E947910909188079F7031
:1033A0009130D1F481111CC082E30E94E01380911E
:1033B0008C07E0918B0720E1829FC0011124E80F68
:1033C000F92FF11DEE0FFF1FE15FFE4F808191810C
:1033D00090689183808349CF811102C089E1E5CF54
:1033E00060E08C2F0E948913E2CF2431310531F641
:1033F00000918A0783E1089F800111240151184F31
:10340000F8018289D82FD37090E09595879595958E
:103410008795C82FCF716D2F8C2F0E947910811145
:103420000AC089E1DF91CF911F910F91FF90EF903A
:10343000DF900C94E01382E090E0F8019787868794
:1034400084E6818BD33081F480911702882319F0B0
:1034500081508093170280910F02909110029093F7
:1034600012028093110201CF6D2F8C2FDF91CF912B
:103470001F910F91FF90EF90DF900C948913809132
:103480000E01282F2E7F9091A90791FF22C0226064
:1034900020930E0180910E0192FF1FC084608093E3
:1034A0000E0180910E0193FF1AC0886080930E0177
:1034B00081E080939607992309F4D7CE90FDD5CE6D
:1034C000DF91CF911F910F91FF90EF90DF900C94BF
:1034D000310F8C7F80930E01DDCF8B7FE0CF877F14
:1034E000E5CF6FE170E08EED9EE00E94B91560E0DF
:1034F0007CE081E00E949214DECEDF91CF911F919B
:103500000F91FF90EF90DF900C94211681E09BE0EB
:1035100090930603809305035093020340930103A5
:1035200084E99AE090930803809307039ECE70E0AD
:1035300060E00E945B0F81E190E00E9402198CE440
:103540009AE0909308038093070381E090E09093C2
:103550000403809303030895CF939091FE02292FD3
:10356000207309F459C0C82F94FF13C020911E0284
:1035700030911F0240911102509112022417350719
:1035800040F0811117C08091200290911D0289178F
:10359000C4F170E060E086E090E00E945B0F81E0A3
:1035A000C11101C082E08093960782E090E0CF9144
:1035B0000C940219809122028C350CF5885F80935F
:1035C0002202809123028E342CF58A5E809323029E
:1035D000241B350B30931F0220931E0262E08AE009
:1035E0000E94AA188BE090E0C11102C08EE190E029
:1035F0000E94C71562E08AE00E94AA18CACF84E63A
:10360000DECF8F5F80932002809123028A3514F4ED
:10361000865FDCCF84E6DACFCF910895CF93DF9336
:10362000EC0185E08C0FE0E4F8E08583848382E0A0
:103630008D0F86836CE070E08EED9EE00E94B915E0
:103640000E9480142CE04EE16D2F8C2FDF91CF91E2
:103650000C94460EEF92FF920F931F93CF937C0131
:1036600000911102109112020E9431180E94D4158B
:10367000C4E2C0934508C093440881E180934608A2
:10368000B7018EED9EE00E94B9150E9480144AE0B9
:1036900069E073E0C8010E94C03289E093E00E94B3
:1036A000801480911E0290911F0280179107A0F450
:1036B000C0934508C09344088CE28093460865E1B6
:1036C00070E08EED9EE00E94B915CF911F910F9191
:1036D000FF90EF900C948014809183079091840761
:1036E000069781F49091200280911D02981754F062
:1036F000C0934508C09344088CE28093460869E073
:1037000070E0DFCF84E29DE2CF911F910F91FF9097
:10371000EF900C940E1BE0E4F8E082E08583848354
:1037200016826AE170E08EED9EE00E94B9150C945D
:103730008014E091C802F091C902E930F10558F512
:10374000EA55F44E682F70E00C945E35AF1BB31B46
:10375000B61BB91BBC1BBF1BC21BC51BC81B89E00A
:1037600097E00C94B91585E097E0FBCF81E097E0F6
:10377000F8CF8BEF96E0F5CF87EF96E0F2CF8AEBAC
:1037800098E0EFCF8FEE96E0ECCF87EE96E0E9CFB2
:1037900081EE96E0E6CF90E080E00895CF93DF934E
:1037A0008091A3079091A40764E0892B09F463E05A
:1037B00082E08093450880934408C1E0C0934608A6
:1037C00070E08EED9EE00E94B9150E94801463E3C4
:1037D00070E08EED9EE00E94B9150E9480148091E9
:1037E00096070E94991B0E9480148EE70E942E1556
:1037F000D82FE0919607F0E0E556F84F80814AE037
:103800006BE073E090E00E94C03280E28093090395
:1038100088E280930A0389E093E0FC010190002094
:10382000E9F7CF018A5093409927FC01E75FFC4FED
:1038300029E22083FC01E65FFC4F10828D0F911D71
:103840009BEF989F900D1124892F885880934508ED
:1038500080934408C093460889E093E0DF91CF91BC
:103860000C9480142F923F924F925F926F927F92AE
:103870008F929F92AF92BF92CF92DF92EF92FF9280
:103880000F931F93CF93DF9300D01F92CDB7DEB776
:103890006C01662E472EF42E722E302E8091C802B7
:1038A0009091C9028930910508F08BC0FC01E85A5B
:1038B000FD4F20812B8320E4892B29F02BE08B8185
:1038C000829F202D11249B81472DF91630F442E46C
:1038D000470DE5EFFE9E200D1124F60182819381B4
:1038E000419769F42C5F4A5F00E0842D8250990B68
:1038F000BC01E62DE450FF0BCF010E94D20710E07F
:1039000000E01A8288248394912CF0E4F60DF98368
:10391000E02E2B81021708F06FC080910E0190E01D
:103920009401002E02C0220F331F0A94E2F7822373
:103930009323892B09F442C08A812A80562C8F1543
:1039400028F059806F2D0E942A35292E8E2D0E9435
:10395000991B5C01F601828193818F30910599F565
:10396000E091A507F091A607E00FF11F80814EE2DC
:103970006BE090E00E945815842D9BE0299E800DFD
:103980001124282E84E0850D8093450880934408F7
:1039900081E0820D80934608C5010E948014332087
:1039A00051F0809196078E1106C02AE0472D622DB6
:1039B000852D0E94460EEA81EF5FEA830F5F1F4F5D
:1039C000A7CF1B827BCF8430910549F46E2D809167
:1039D000A3079091A4070E948C0E44E2C9CF0B97D5
:1039E00059F62FEB2003C001219F900D112444E2D2
:1039F0006FE08D5E9E4FBECF0F900F900F90DF91C6
:103A0000CF911F910F91FF90EF90DF90CF90BF90DB
:103A1000AF909F908F907F906F905F904F903F906E
:103A20002F9008950F931F93CF938C01C1E0499776
:103A300009F4C0E00931110511F00E94D41582E0AB
:103A4000809345088093440810924608B8018EED93
:103A50009EE00E94B9150E9480148091A9078111EF
:103A60000AC00931110559F481E897E0CF911F91FF
:103A70000F910C94141828E30931110509F024E57D
:103A80008AE1C89FB0011124685F7F4F01E044E0E4
:103A90007FE081E897E00E94321CCF911F910F9147
:103AA00008950F931F93CF93DF93EC01162F8A8114
:103AB0009B810F9709F476C086E080934508809338
:103AC000440801E00093460863E070E08EED9EE05C
:103AD0000E94B9150E94801480E28093450880936B
:103AE00044080093460864E070E08EED9EE00E947A
:103AF000B9150E9480149091A3072AE04BE160E081
:103B00008CE1989F802D11240E94460E8A819B8112
:103B10000FEF0F9721F08EE70E942E15082F8A8154
:103B20009B8165E070E00F9711F066E070E08EED2C
:103B30009EE00E94B915AC0129E033E0F901019043
:103B40000020E9F79F012A503340200F3327331F0D
:103B50009BEF929F900D112492589093450890935B
:103B6000440881E080934608CA010E948014112312
:103B700009F446C08091A5079091A6070E94BB0E4C
:103B8000182F8BEC92E00E94BB0E81111BC08A8122
:103B90009B810F97B9F0CE01DF91CF911F910F91CB
:103BA0000C94141882E08093450880934408109286
:103BB000460862E070E08EED9EE00E94B9150E941A
:103BC0008014A4CF11110FC068E070E08EED9EE06C
:103BD0000E94B91560E070E080E0DF91CF911F9105
:103BE0000F910C94921401E08A819B810F9709F444
:103BF00000E02FE344E060E072E1CE010E94321C5D
:103C0000DF91CF911F910F910895FF920F931F9312
:103C1000CF93DF93EC01F62E08811981C8010E9431
:103C2000F532F81621F06F2DC8010E94FD32CE0149
:103C3000DF91CF911F910F91FF900895CF92DF9266
:103C4000EF92FF920F931F93CF93DF9300D0CDB7E6
:103C5000DEB76B01C40ED51E8B010F967C01E61AF0
:103C6000F70A0C151D0569F0F80161918F01C70174
:103C70008E0F9F1F9A838983CE0101960E94051E95
:103C8000F0CF0F900F90DF91CF911F910F91FF9088
:103C9000EF90DF90CF9008951F920F920FB60F9282
:103CA00011248F939F938091E1009091E100937F85
:103CB0009093E10083FF0FC01092E90091E0909390
:103CC000EB001092EC0092E39093ED001092F90259
:103CD00098E09093F00082FF22C093E09093E90077
:103CE0009091F200992319F09AE39093E800909153
:103CF000EA02992341F09091EA0291509093EA02EE
:103D0000911101C05D9A9091F802992341F0909130
:103D1000F80291509093F802911101C0289A84FF03
:103D200018C08091E2008E7E81608093E2008091D5
:103D3000E1008F7E8093E1008091EB028E7E8061B6
:103D40008093EB029F918F910F900FBE0F901F9069
:103D5000189580FFF7CF8091E2008E7E806180937E
:103D6000E2008091E1008E7E8093E1008091EB0281
:103D70008E7E8160E5CF1F920F920FB60F921124B5
:103D8000CF92DF92EF92FF920F931F932F933F9367
:103D90004F935F936F937F938F939F93AF93BF9353
:103DA000EF93FF93CF93DF93CDB7DEB76C97DEBF72
:103DB000CDBF1092E9008091E80083FF25C068E044
:103DC000CE0145960E94610B82EF8093E8008D89B9
:103DD00087FF39C09091E80090FFFCCF982F907634
:103DE00009F034C19E894F89588D2F89F88C911123
:103DF00031C0803861F58091E9028093F100109222
:103E0000F1008EEF8093E8006C960FB6F894DEBF59
:103E10000FBECDBFDF91CF91FF91EF91BF91AF91D9
:103E20009F918F917F916F915F914F913F912F91D2
:103E30001F910F91FF90EF90DF90CF900F900FBEEA
:103E40000F901F9018959EEF9093E800C7CF1092A7
:103E5000F100D5CF913059F48111D3CF41305105C4
:103E600081F68091E9028D7F8093E902CACF933079
:103E700049F48111C6CF4130510519F68091E9020C
:103E80008260F2CF953041F48091E80080FFFCCF52
:103E900020682093E300B5CF963009F0A9C00B8DC0
:103EA0001C8D22E01092E9001092E7021092E602C7
:103EB000F2122EC01092E5021092E4020E94300B22
:103EC0001F8299E09983FA8291E09E8390EA988715
:103ED0009AEF99872091E6023091E702275F3F4FE2
:103EE0003C832B838D831092E9001092E70210929D
:103EF000E6021093E5020093E40249E050E0BE01BF
:103F00006F5F7F4F80E00E940A0B0E94300B79CFD9
:103F10001093E5020093E4020E94470ADC01129626
:103F20000D911C910115110509F451C1D801ED91B4
:103F3000FC910480F581E02DBE016B5E7F4FC801CE
:103F40000995009709F03EC1F80100851185EACF77
:103F5000F3E0FF120EC08F89882309F440C082303D
:103F600061F440E867E084E49AE00E94372181111F
:103F700048CF81E28093EB0047CF813029F440E8BD
:103F80006BE088E39AE0F1CF833099F70E94470A0B
:103F9000DC011296ED90FC908E010F5F1F4F6801BF
:103FA000E114F10479F0D701ED91FC910680F781DD
:103FB000E02DB801C7010995080F111DF701E08434
:103FC000F184EECFD8011C92F60101900020E9F7B0
:103FD0003197BF016C197D0940E0C601C6CF62E28E
:103FE0007AE0FB01449150E080E80E940A0B09CF7F
:103FF000973009F4BECF983021F481E08093F1002E
:1040000000CF993009F0FDCE837009F0B2CFE4E91A
:10401000F2E081E031E096E32191222371F0809378
:10402000E9003093EB00DF0111972C912093EC0015
:104030009093ED008F5F873079F78EE78093EA00E9
:104040001092EA008F898093F902DBCE8B8D9C8DD4
:104050001092E9001092E7021092E6029093E502B6
:104060008093E402898D811192C08E899D89913A55
:1040700049F4813209F07DCF47E050E066E071E01D
:1040800080E0B3CF913209F074CF833269F48F8925
:10409000988DB0E0A0E08093020190930301A0937B
:1040A0000401B0930501ADCE803269F48091E8003F
:1040B00082FFFCCF67E086E091E00E94610B8BEF0E
:1040C0008093E8009ECE823209F09BCE8F89809348
:1040D0000D01EEEFFFE7859194918B3F9C4D51F1DF
:1040E000E0E0F8E08091060190910701A0910801BD
:1040F000B0910901803B9440A105B105F1F4809194
:104100000D0180FD1AC0EE3F8AE0F80789F587E7C8
:1041100097E791838083809160008093E80288E133
:104120009BE00FB6F894A895809360000FBE909323
:10413000600067CEEEEFFAE0D5CF808191818737BE
:10414000974709F05ECEA8958091600088618093C2
:1041500060008091E80280936000EE3F2AE0F20761
:1041600089F08091FE0A9091FF0A9183808349CE65
:10417000808191818737980751F29093FF0A80934D
:10418000FE0AC5CF1092FF0A1092FE0A3ACE0E9494
:10419000470ADC0112960D911C910115110509F4D5
:1041A000E8CED801ED91FC910190F081E02DBE01A7
:1041B0006B5E7F4FC8010995811123CEF801008500
:1041C0001185EBCF181619060CF41BCED2CEF1E0F8
:1041D000FF12BECE66E27AE004CF1F920F920FB6B6
:1041E0000F9211242F933F938F939F93AF93BF937D
:1041F0008091290390912A03A0912B03B0912C0365
:104200003091C20223E0230F2D3758F50196A11DEE
:10421000B11D2093C2028093290390932A03A09397
:104220002B03B0932C038091C3029091C402A09100
:10423000C502B091C6020196A11DB11D8093C302B3
:104240009093C402A093C502B093C602BF91AF91F0
:104250009F918F913F912F910F900FBE0F901F90C4
:10426000189526E8230F0296A11DB11DD2CFEF921B
:10427000FF920F931F93CF93DF93F82E192FE62E03
:10428000042F81E0860F880F0E94DC0A83E00E94E1
:10429000DC0ACF2DD12FEC0EFD2EF11CCE15DF0543
:1042A000B9F007FF13C0FE0184910E94DC0A182FA9
:1042B00080E00E94DC0A812321968111EFCFDF91FB
:1042C000CF911F910F91FF90EF9008958881EDCFCE
:1042D00081E0F5CFCF93DF9300D0CDB7DEB710925A
:1042E000300710922F0788EE93E0A0E0B0E08093B3
:1042F000310790933207A0933307B093340782EAD3
:1043000092E090932E0780932D078FEF9FEF90936D
:104310003A078093390780EC92E0909349088093A4
:10432000480810924D0810924E0880E180934F0883
:1043300010924C0810924B081092510810924308AA
:104340001092420824EB32E0309341082093400859
:1043500010924508109246081092440891E09093FC
:10436000470890E490932808109229089FE39093BF
:104370002A0828E020932B083DE330932C088093F3
:104380002D084BE340932E0858E150932F0867E324
:10439000609330087FE17093310872E370933208C4
:1043A000E6E2E0933308FDE2F0933408F093350839
:1043B000E09336087093370870E270933808609382
:1043C000390850933A0840933B0880933C08309357
:1043D0003D0820933E0890933F08109215081092D4
:1043E00016081092170810921808109219081092C7
:1043F0001A0810921B0810921C0810921E081092A6
:104400001D0810921F081092200810922108109287
:104410002208109224081092230810922508109266
:104420002608109227081092EF071092F0071092BA
:10443000F1071092F2071092F3071092F40710920E
:10444000F5071092F6071092F8071092F7071092EE
:10445000F9071092FA071092FB071092FC071092CE
:10446000FE071092FD071092FF07109200081092AD
:10447000010810920208109203081092040810928A
:10448000050810920608109207081092080810926A
:10449000090810920B0810920A0810920C0810924A
:1044A0000D0810920E0810920F0810921108109229
:1044B000100810921208109213081092140810920B
:1044C000AF071092B0071092B1078DE08093B30749
:1044D00080E090E0A4E3B3E48093B4079093B50741
:1044E000A093B607B093B70782E69DEF9093B90704
:1044F0008093B8078FE29EEF9093BB078093BA0733
:1045000086E692E09093BD078093BC078CEC90E028
:104510009093BF078093BE071092C0071092C10707
:1045200082E88093AA071092AB071092AC07109212
:10453000A9071092A4071092A3078BE997E0909324
:10454000A6078093A50780E593EC90939807809346
:10455000970788EC80939907809196078093950739
:10456000109287071092880710928B0710928C0781
:1045700010928D0710928E0780E88093B2070E94F8
:104580007C0980E090E19093800780937F0780E032
:1045900098E090937E0780937D0780E090E8ACE4FC
:1045A000B1E08093150890931608A0931708B09374
:1045B000180880E090E8AAE0B2E080931908909390
:1045C0001A08A0931B08B0931C0881E090E0909318
:1045D000240880932308109226080E947E13282F17
:1045E000237095958795959587958F73992764E1A5
:1045F00070E00E944A3592E0920F990F890F34E0E3
:10460000839FC0011124822B8093270842E050E051
:10461000BE016F5F7F4F90E080E00E949A15298174
:104620003A8180912402909125022817390721F4BC
:104630008AE995E10E943C100E94341183E190E0E8
:104640000E9402190F900F90DF91CF910895CF93A0
:10465000DF93CDB7DEB768970FB6F894DEBF0FBE15
:10466000CDBF789484B5826084BD84B5816084BDFB
:1046700085B5826085BD85B5816085BD80916E0000
:10468000816080936E001092810080918100826031
:10469000809381008091810081608093810080916E
:1046A000800081608093800080919100826080937F
:1046B00091008091910081608093910080919000A1
:1046C0008160809390008091C10084608093C100DC
:1046D0008091C10082608093C1008091C10081609F
:1046E0008093C1008091C30081608093C30080915A
:1046F000C00082608093C0008091C200816080937E
:10470000C20080917A00846080937A0080917A0060
:10471000826080937A0080917A00816080937A0031
:1047200080917A00806880937A001092F90210924A
:10473000E9021092EB028091D70081608093D7004C
:1047400080EA8093D80089B5806189BD89B582608F
:1047500089BD09B400FEFDCF61E070E080E090E02B
:104760000E94C00B8091D8008F7C80618093D8001C
:104770008091E000807F8093E0008091E1008E7E58
:104780008093E1008DE08093E200559A209A81ECBD
:1047900080937C0085B1806F85B984B1877E84B9B0
:1047A00084B1876E84B95E9A5F988AB1806D8AB948
:1047B000769A6E9881B3806F81BB899880B38D7033
:1047C00080BB80E58CBD81E08DBD85E090E00E94DE
:1047D000CE0D5F9A85E090E00E94CE0D5E985C98C9
:1047E000E7E0F8E084E198E024912EBD00000DB4EC
:1047F00007FEFDCF31968E179F07B1F75C9A81E8CF
:1048000080936400809165008160809365000E94C0
:10481000D30D02E010E087FF15C05C9885EA8EBDDD
:1048200000000DB407FEFDCF5C9A2E982F982D98AE
:104830008091640080628093640081E083BF8895EA
:1048400013BEFCCF0E94D30D82FF3EC02D980E9464
:10485000D30D84788438B9F42D9A88EC90E00E94C6
:10486000CE0D2F981A8309836FEFCE0101960E9417
:10487000051E84EF91E00E94CE0D2F9A0E94D30D69
:1048800084788438D9F30E94D30D84718431B9F4CB
:104890002D9A88EC90E00E94CE0D2E981A83098301
:1048A00060E0CE0101960E94051E84EF91E00E9417
:1048B000CE0D2E9A0E94D30D84718431D9F388ECE9
:1048C00090E00E94CE0DBECF2D9A82E090E00E9433
:1048D000F532882309F45EC00E94E00D80E18093E8
:1048E0004F08109290008AE0809391001092C000CF
:1048F00088E08093C1001092C3001092BF00109214
:10490000CF000E941808F82E882311F40C94E62D8D
:1049100000918307109184070E94D30D2091E30238
:1049200020952823382F012B09F0322F9091FE0279
:1049300037FB90F934FB91F935FB92F936FB93F98B
:1049400023FB94F922FB95F99093FE028093E302F6
:10495000E0918307F0918407E631F10508F03EC449
:10496000EC54FB4D0C945E35CD24ED29F5293D2A00
:10497000492AB22AB62AB82AB82AC22A772BAE2BDD
:10498000D42B112C432C532C532C632C402D972DBE
:10499000AB2DC32D0E94DB0DA1CF809123089091F8
:1049A0002408029781F4809126088150809326087C
:1049B000811120C461E08EE10E94AA1885E190E097
:1049C0000E9402190BC42091FE0280911D08909153
:1049D0001E08029622FD07C023FF13C080911D0808
:1049E00090911E080297E8E6F1E0BF010E944A3567
:1049F00088599E4FBF010E944A3590931E088093AC
:104A00001D0820FF9DC280911F088F5F80931F08A3
:104A100018160CF490C281E080931F0825FF0EC089
:104A200070E060E090E080E00E945B0F10929607DB
:104A30001092950781E190E00E9402198091DB02BB
:104A4000811113C01092D3021092D4021092D50299
:104A50001092D6021092D7021092D8021092D90268
:104A60001092DA0281E08093DB0285E198E00E94F7
:104A700011112093D3023093D4024093D502509366
:104A8000D6026093D7027093D8028093D902909394
:104A9000DA0280911802882309F458C260E070E0BD
:104AA00080EC9FE320E030E040E057E40E94BD341A
:104AB0000E94F9334B015C01809125088823B1F0F5
:104AC00080911D0890911E08109225088C549F4FCC
:104AD00028E631E0B9010E944A3588599E4FB90154
:104AE0000E944A3590931E0880931D0880911D08EE
:104AF00090911E080E94F012909321088093200844
:104B000020911F082802C0011124E6E095958795A1
:104B1000EA95E1F790912108290290011124F6E02D
:104B200035952795FA95E1F7A9E0B694A79497945F
:104B30008794AA95D1F7482D8402C0011124B6E0CC
:104B400095958795BA95E1F7082E000C990BAA0B5D
:104B5000BB0B19E0880F991FAA1FBB1F1A95D1F72D
:104B60004091150850911608609117087091180827
:104B7000840F951FA61FB71F8093150890931608E2
:104B8000A0931708B0931808582D52024001112421
:104B900006E0959487940A95E1F7082C000C990893
:104BA000AA08BB0829E0880C991CAA1CBB1C2A95E2
:104BB000D1F74091190850911A0860911B08709123
:104BC0001C08840E951EA61EB71E8092190890928E
:104BD0001A08A0921B08B0921C0840917F075091C0
:104BE000800770E060E03FE0440F551F661F771FAD
:104BF0003A95D1F7B7FFAFC1840F951FA61FB71F16
:104C00008093150890931608A0931708B09318087E
:104C100080917D0790917E07B0E0A0E07FE0880F53
:104C2000991FAA1FBB1F7A95D1F7B7FE9FC1880DA8
:104C3000991DAA1DBB1D8093190890931A08A09373
:104C40001B08B0931C0885E198E00E941111298788
:104C50003A874B875C876D877E878F87988B89849F
:104C60009A84AB84BC84898A9A8AAB8ABC8A4D8434
:104C70005E846F8478880FEE17E0312C212C68E673
:104C8000C62EDD24D394E22CD8011E962D913C91A2
:104C90002115310509F081C10E947E13B6010E94E1
:104CA00036350E94F012E82E692F990F770B880B8A
:104CB000990B0E94313420E030E040E85CE30E9430
:104CC000BD3420E030E040E053E40E94BD3420E0F9
:104CD00030E040E057E40E94BD340E94F9334B01BC
:104CE0005C01840C951CA61CB71C6E2DEE0C770B7A
:104CF000880B990B0E94313420E030E040E85CE3FF
:104D00000E94BD3420E030E040E053E40E94BD3416
:104D100020E030E040E057E40E94BD340E94F933C7
:104D200029893A894B895C89620F731F841F951FFB
:104D300069837A838B839C838D829E82AF82B886BF
:104D4000CE0101960E94E410882309F446C088E051
:104D5000FE013196D80101900D928A95E1F70E94EB
:104D60007E13B6010E943635D80119969C938E9316
:104D70001897E3E11A96EC931A9788248394912C60
:104D80001F969C928E921E9751961C920E947E13A3
:104D9000282F237095958795959587958F739927DB
:104DA00064E170E00E944A35982F82E0820F880FFC
:104DB000890F34E0839FC0011124282BD80152961B
:104DC0002C9352972370233041F480911702811164
:104DD00004C01F961C921E921E970D5E1F4F2A94B0
:104DE000232809F0D6C00E9434111091AF07129504
:104DF0001F700091B00702950F7030E1039FF00122
:104E00001124E10FF11DEE0FFF1FE15FFE4F8181C5
:104E1000982F977090931402209183073091840704
:104E2000232B09F016C290E024E0959587952A95EA
:104E3000E1F783709927039709F00BC280914B0823
:104E400090914C0887709927892B11F50E947E1349
:104E50006CE070E00E943635EE24E394009709F090
:104E6000E12C20911C02222389F0892B79F00E94E9
:104E70007E1383709927892B49F40E947E136FE07B
:104E800070E00E9436358C5F0E949E10E0921C02FA
:104E90008091C10790E0029665E070E00E944A357B
:104EA0009C018091C00790E0049669E070E00E9448
:104EB0004A3549E0429FF001439FF00D1124E1552E
:104EC000F84FE80FF91FE388D090B30710928907D5
:104ED00047EC5EE05E8B4D8B188E1F8A2D893E89D4
:104EE0004F89588D602F812F0E946A081092820787
:104EF0001092810780911F0890918907992309F4E6
:104F000039C293E090931F0898E0E3EDF2E0A5E149
:104F1000B8E001900D929A95E1F791E09093250801
:104F20008A310CF499C10E947E1364E170E00E9402
:104F300036358B5F41C28A310CF470CD89E16CCD7E
:104F400080911F08815021FF69CD60CD60E070E045
:104F500080E89FE3A7CD84179507A607B7070CF451
:104F600057CE841B950BA60BB70B4ACE8816990615
:104F7000AA06BB060CF467CE881A990AAA0ABB0ACD
:104F80008092190890921A08A0921B08B0921C08EF
:104F90005ACE22242394312C76CEF801858588239D
:104FA000D9F091E087FF9FEF890FD8011D968C9370
:104FB0004FEF87FF41E0F80180859185840F911DB7
:104FC00047FD9A95B6010E944A3588599E4FB60111
:104FD0000E944A3591878087D80151968C915197CC
:104FE000882369F0815051968C935197811107C0A5
:104FF0002230310521F41F961C921E921E97F80153
:1050000086859785019709F075C0808591850E94F6
:10501000F012D8011C969C938E931B971A968C9134
:105020001A971C964C911C978402A001112466E0EB
:10503000559547956A95E1F7042E000C550B660BC4
:10504000770BE9E0440F551F661F771FEA95D1F7EC
:1050500014968D909D90AD90BC901797480D591D5A
:105060006A1D7B1D1B969C918902C0011124F6E0EC
:1050700095958795FA95E1F7082E000C990BAA0BE8
:10508000BB0B29E0880F991FAA1FBB1F2A95D1F7D8
:10509000F80180809180A280B380880D991DAA1D9F
:1050A000BB1D89839A83AB83BC834D835E836F83EF
:1050B0007887CE0101960E94E410882309F465C028
:1050C00088E0FE013196D80101900D928A95E1F7B2
:1050D000D8011D968C9181110DC00E947E139C01F8
:1050E0002227232B39F460EF70E00E944A3588575D
:1050F000F8018587D80151968C91519781116DCE19
:105100001E968D919C91019709F067CEC8010E946F
:10511000111129833A834B835C836D837E838F8354
:10512000988749815A816B817C818D819E81AF8175
:10513000B88584199509A609B70989889A88AB8822
:10514000BC88481959096A097B0977FF07C070951F
:105150006095509541955F4F6F4F7F4FB7FF07C0E8
:10516000B095A095909581959F4FAF4FBF4F41301F
:10517000510520E86207710534F48130910530E86B
:10518000A307B1053CF0D80124CEEFE7D8011D9666
:10519000EC93B0CF41155105664071050CF01DCE62
:1051A0000097A640B1050CF018CE83E080931F084D
:1051B00081E090E09093820780938107E0928A07D4
:1051C00083E1829DF001839DF00D1124E151F84FA0
:1051D00080EF818B84E090E00E94971A8091830792
:1051E00090918407009731F08131910519F00E9765
:1051F00009F04CC180911C02882309F4DFC487EABE
:105200005C988EBD00000DB407FEFDCF5C9AE09166
:105210008307F0918407E631F10508F0D3C4ED5E11
:10522000F64D0C945E35E02DF02D2C2E362EB22E40
:10523000B82EBD2EC02EC02E852F073057305C30C3
:10524000B030B330B22ECD304D3165318F311F3299
:10525000883210921C021CCE00918807502F5F707C
:10526000E52E8FEF850F823008F064C080918C07A7
:10527000E0918B07A0E18A9FC0011124E80FF92F6C
:10528000F11DEE0FFF1FE15FFE4F818187FF0FC011
:1052900063E170E08EED9EE00E94B91560E070E081
:1052A00081E00E94921488E70E942D1097CF809190
:1052B000870790E00E945E134E2D5EEC5403900130
:1052C00011242A563F4F62E370E00E943635280FC2
:1052D000391F309316022093150280901402A0907B
:1052E000A307B090A4078BECC82E82E0D82E912C97
:1052F00010E00B5C12407E2C8F2D891441F0C80108
:105300008C0D9D1D0E945E1380959095817091E09B
:10531000791619F0A2E0A91520F5882311F1692D5D
:10532000C5010E948C0EF60181936F019394F8E001
:105330009F12E2CF13E0812EE81409F447C08E14C7
:1053400090F09924939482E090E0E91408F446CF19
:105350000E94971A82E090E09093820780938107E1
:105360003DCF80E0E0CFB4E0AB2E83E090E0EA14E4
:1053700079F334CF4D2D4150550BE41615060CF43E
:105380002DCF93E090931F0898E0E3EDF2E0A5E1C4
:10539000B8E001900D929A95E1F791E0909325087D
:1053A000DE1469F08D300CF419CF0E947E136FE08B
:1053B00070E00E943635835F0E949E100FCF8A31C5
:1053C0002CF00E947E136BE070E0B1CD81E090E0A4
:1053D0000E94971A84E090E0BFCF8091FE02807314
:1053E00009F454C090E080E0EBCA0E94420F809123
:1053F000FE0284FF3FC0809196078130D9F040F0D3
:10540000823059F1833009F0E9CE87E090E0D8CAC4
:105410001092A4071092A3078BEC92E09093A6073A
:105420008093A507BC0185E090E00E945B0F84E0BB
:1054300090E0C6CA809120025FE08502C00111247D
:10544000909312028093110285E090E00E9402196D
:1054500063E08AE00E94AA18C1CE80912002A3E2F4
:105460008A02C0011124909312028093110286E0F7
:1054700090E0ECCF85FFB2CEB5CF8091FE0284FFE5
:1054800003C088E090E09CCA85FDACCF0E945D0817
:10549000B1CE0E94420F8091FE028C7081F120916A
:1054A000A3073091A40781E090E0821B930B9093B7
:1054B000A4078093A3076BE977E0892B11F46BECC9
:1054C00072E07093A6076093A50785E090E00E94C4
:1054D0005B0F8CE59BE0909308038093070381E0CA
:1054E00090E090930403809303030E945D0860E0C2
:1054F00081E897E00E94511D86E00E942D10809166
:10550000FE0284FF24C08091A5079091A6070E9407
:10551000BB0EE82E0091A3071091A4076091960797
:10552000C8010E948C0E012B49F420911E0230917B
:105530001F028217130611F008F050CEEE2009F476
:105540004DCE81E080939A0789E090E039CA85FFCB
:1055500045CE70E060E086E090E00E945B0F82E064
:1055600090E02ECA81E00E94AC1A38CE80E0FBCFDA
:105570008091FE02807309F431CE61E08EE10E94D9
:10558000AA1830CFE09096070091A3071091A407C6
:105590006E2DC8010E948C0E482F20911E02309162
:1055A0001F020115110509F064C0682F70E0C901E0
:1055B0000E9436356436710510F063E670E0509154
:1055C000FE0280919A078150990B52FD06C051FF4F
:1055D0005AC080919A078A50990B8436910514F02D
:1055E00083E690E01816190614F081E090E08093AD
:1055F0009A07852F807309F449CF54FF35C0D090A6
:105600009A07AD2DB0E0D49EC0011124EE2DF0E03C
:10561000E556F84FE0804E2D50E0012B09F050C0C8
:105620002817390709F449C0281B390B30931F028A
:1056300020931E02809199074A0F5B1F841715065D
:1056400019F014F08E2D8D0D80830E945D080E944C
:10565000CE1B8AE00E942D108BE090E00E94C715BF
:1056600061E08AE00E94AA186091A5077091A607E0
:10567000DACEEE2DF0E0E556F84F6081633608F49F
:105680009ECF63E69CCF53FF0BC080919A0790E0BA
:1056900070E00196681779070CF0A4CFCB01A2CF78
:1056A00050FFA7CF80919A079AE0813009F499E0E2
:1056B00070E0890F9927991FEDCF30E020E0B6CF39
:1056C000820F931F6091970770919807861797072D
:1056D00008F4BC0170931F0260931E024A1B5B0B0F
:1056E000ED18141615060CF0E12CE082AECF809177
:1056F000FE02982F907309F4C9CE84FF2CC020912C
:10570000210284E690E0FC01E21BF10927FDF395FC
:10571000CF01880F991F8E0F9F1F0097E1F02091F6
:105720001E0230911F0228173907A8F0281B390BD9
:1057300030931F0220931E0284E68093210262E0D0
:105740008AE00E94AA188BE090E00E94C71562E0F0
:105750008AE00E94AA1881E190E032C90E94420FBB
:105760008091FE0284FF17C040919607442309F4FC
:10577000E6C68091A90790E021E030E002C0220F48
:10578000331F4A95E2F782239323892B09F0DCC665
:105790008CE090E015C985FF21CD70E060E083E0EA
:1057A00090E00E945B0FD7CF8091FE0284FF36C04D
:1057B000409196075FEB5403900111242D5E3E4FFC
:1057C00080911E0290911F0282179307C0F0821BE6
:1057D000930B90931F0280931E02411113C080917E
:1057E000CA028F5F8093CA020E945D080E948B1BD1
:1057F0008AE00E942D108BE090E00E94C7158BE09C
:1058000090E0DEC821E030E001C0220F4A95EAF7BF
:105810008091A907822B8093A907E6CF85FDEFCF62
:1058200035CE1091FE028091A907882321F10E94B4
:10583000420F14FF20C0809196078130B1F0833071
:1058400009F0CCCC8091180291E08927809318024E
:1058500061E08AE00E94AA1880911802882341F032
:1058600084E290E00E94C715B9CC8EE090E0A8C811
:1058700085E290E0F7CF107309F4B0CC70E060E0FF
:1058800090E080E08ECF8091FE02807309F4B2CC6C
:1058900061E08AE00E94AA188DE090E0909384076E
:1058A000809383079BCC8091FE02807309F496CC91
:1058B00070E060E090E080E00E945B0F80919507CF
:1058C0008093960748CF0E94420F8091FE0285FD8B
:1058D00089CD84FF83CC8091C8029091C902823027
:1058E000910509F4B6C0B4F4009711F1019709F0DD
:1058F00079CD80919607811175CD81E090E00E946D
:10590000021980911902813009F076C08FEF8093DF
:10591000190264CC8330910509F4A0C0049709F002
:1059200061CD8091960781115DCD83E090E048C8FC
:1059300080919607823069F1C8F4882331F1813073
:1059400009F050CD81E090E09093A4078093A307E5
:105950008BE997E09093A6078093A507BC0185E0AB
:1059600090E00E945B0F8FE090E02AC88330D9F06E
:10597000843009F037CD70E060E088E090E00E946C
:105980005B0F82E190E00C94E02480E190E00C94C5
:10599000E02470E060E087E090E00E945B0F8DE023
:1059A00090E00C94E02442E050E064E272E090E089
:1059B00080E00E941E1E8EE19EE10E943C106091DC
:1059C000C70282E090E09A838983CE0101960E940B
:1059D000051E0E945D0869E270E08EED9EE00E9467
:1059E000B91560E070E081E00E94921484E60E94A4
:1059F0002D100E942116F2CB8111F0CB80918807E7
:105A0000807F09F4EBCB81E0809319020E947E1322
:105A100069EE70E00E94363581589F4F90931B02CB
:105A200080931A0220911E0230911F02820F931F51
:105A300090931F0280931E028CEA9DE090930803CE
:105A40008093070381E090E0909304038093030325
:105A5000C5CB809196078111C5CC7BCD80919607EF
:105A6000882339F0813009F0BDCC8AE090E00C94B5
:105A7000E02470E060E087E090E00E945B0FBFCE22
:105A80000E94420F8091FE0285FD12CF84FFA6CBBB
:105A900080919607813009F442C008F436C0823004
:105AA00009F09CCB61E084E60E94AA1880E190E0B6
:105AB0009A83898360E0CE0101960E94051E809141
:105AC000C70281110CC00E94E00D6091C70282E004
:105AD00090E09A838983CE0101960E94051E0FB63D
